:020000040800F2
:10000000000001104D030008550300085D030008BF
:10001000E5030008150400086D0400080000000056
:100020000000000000000000000000005D33000838
:10003000C90400080000000081340008F9340008F9
:10004000DD040008DD040008DD040008DD0400080C
:10005000DD040008DD040008497F0008DD04000815
:10006000DD040008DD040008DD040008DD040008EC
:10007000DD040008DD040008DD040008DD040008DC
:10008000DD040008DD040008317C0008DD04000800
:10009000DD040008DD040008DD040008DD040008BC
:1000A000DD040008DD040008DD040008DD040008AC
:1000B000DD040008DD040008DD040008DD0400089C
:1000C000DD040008DD040008DD040008DD0400088C
:1000D000DD040008DD040008DD040008D183000809
:1000E000A17E0008DD040008DD040008DD0400082E
:1000F000DD040008DD040008DD040008DD0400085C
:10010000DD040008DD040008DD040008DD0400084B
:10011000DD040008DD040008DD040008DD0400083B
:10012000DD040008DD040008DD040008DD0400082B
:10013000DD040008DD040008DD040008DD0400081B
:10014000DD040008DD040008DD040008DD0400080B
:10015000DD040008DD040008DD040008DD040008FB
:10016000DD040008DD040008DD040008DD040008EB
:10017000DD040008DD040008DD04000800000000C4
:10018000DD040008DD04000880B596B000AF06F07D
:10019000D3F95D4B5D4A1A605D4B5C4A1A605D4B5A
:1001A0007B6523E07B6D1A1D7A651B68FB647B6DA4
:1001B0001A1D7A651B68BB647B6D1A1D7A651B6806
:1001C0007B64FB6C7B63BB6C3B637B6CFB623B6B5C
:1001D000BB6207E0BB6A1A1DBA627A6B111D7963B4
:1001E00012681A60FA6ABB6A9A42F3D87B6D4A4A6F
:1001F0009342D7D3444B1B68484A934204D1444BA3
:100200001B68474A934200D0FEE7464B3F4A1A60BC
:10021000454B3E4A1A60454B3B6519E03B6D1A1D44
:100220003A651B683B643B6D1A1D3A651B68FB63AE
:100230003B6C7B62FB6B3B627B6AFB6104E0FB69AE
:100240001A1DFA6100221A603A6AFB699A42F6D8CE
:100250003B6D374A9342E1D3324B1B68002B03D1ED
:10026000314B1B68002B00D0FEE706F075F907F153
:1002700008023B1D1046194606F0A2F82D4A2E4BE7
:10028000D31A9B10BB6100237B6107E02A4A7B697C
:1002900052F8233098477B6901337B61BA697B69E7
:1002A0009A42F3DC254A264BD31A9B10BB610023EC
:1002B0007B6107E0224A7B6952F8233098477B69CB
:1002C00001337B61BA697B699A42F3DCBA687B6867
:1002D0001046194607F054FFB8631A4A1A4BD31A4E
:1002E0009B103B613B69FB6008E0FB68013B164AE1
:1002F00052F823309847FB68013BFB60FB68002BFA
:10030000F3DCB86B06F018F800000020BABADECAB9
:100310007800002000400008184000087856341289
:1003200032547698800000209C0800201840000875
:1003300028400008284000082840000828400008FD
:1003400028400008284000082840000880B500AF79
:10035000FFF71AFF80B400AF00BEFEE71EF0040FE7
:100360000CBFEFF30880EFF309807146584A10473D
:1003700080B588B002AF78603960184B5B6B7B61E9
:10038000164B9B6B3B61154B9B6AFB60134B1B6BC6
:1003900003F00203002B10D0104BDB6A002B0CDAA9
:1003A00078684BF6AB6106F073F90346002B04D076
:1003B0000A4B4FF00042DA620CE0094806F022F8DE
:1003C0003B6800937868F9687A693B6906F0CAF877
:1003D00000BEFEE71837BD4680BD00BF00ED00E05F
:1003E000A8A000081EF0040F0CBFEFF30880EFF385
:1003F00009808169DFF810201160044A0449096806
:10040000116006F06FF900BE9408002098080020E3
:1004100034ED00E01EF0040F0CBFEFF30880EFF3A3
:10042000098071462B4A104780B588B002AF7860CA
:1004300039600C4B5B6B7B610A4B9B6B3B61094BDF
:100440009B6AFB60084805F0DDFF3B680093786815
:10045000F9687A693B6906F085F800BE1837BD4631
:1004600080BD00BF00ED00E0E0A000081EF0040F1A
:100470000CBFEFF30880EFF309807146164A10476E
:1004800080B588B002AF786039600B4B5B6B7B61E5
:10049000094B9B6B3B61084B9B6AFB60074805F06F
:1004A000B1FF3B6800937868F9687A693B6906F0A8
:1004B00059F800BEFEE700BF00ED00E0ECA0000828
:1004C00080B400AF00BEFEE780B400AF00BEFEE720
:1004D00071030008290400088104000880B400AFFB
:1004E00000BEFEE780B584B000AF786039607B68FD
:1004F000FB60FB68002B00D100BE08F007FFFB6823
:100500001A68FB68DB6BF968096C01FB03F31A449A
:10051000FB685A60FB6800229A63FB681A68FB68F4
:100520009A60FB681A68FB68DB6B013BF968096C31
:1005300001FB03F31A44FB68DA60FB684FF0FF32FB
:100540005A64FB684FF0FF329A643B68002B10D16D
:10055000FB681B69002B16D0FB681033184601F0AE
:10056000F5FC0346012B0ED10A4B4FF080521A6066
:1005700009E0FB681033184607F092FFFB6824334C
:10058000184607F08DFF08F0DFFE012318461037EC
:10059000BD4680BD04ED00E080B588B000AFF860D6
:1005A000B9601346FB710023BB61FB68002B00D1CF
:1005B00000BEBB68002B02D10023FB6105E0FB6895
:1005C000BA6802FB03F30133FB61FB694C33184645
:1005D00002F042FE78617B69002B17D0BB68002BCC
:1005E00003D17B697A691A6004E07B6903F14C02EC
:1005F0007B691A607B69FA68DA637B69BA681A6496
:1006000078690121FFF76EFF7B69BB61BB69002B35
:1006100000D100BEBB6918462037BD4680BD00BF73
:1006200080B584B000AF0346FB714C2002F014FE8D
:10063000F860FB68002B2CD0FB6800225A60FB6836
:1006400000221A60FB6800229A60FB680022DA60D0
:10065000FB6800229A63FB680122DA63FB680022D0
:100660001A64FB684FF0FF325A64FB684FF0FF32A8
:100670009A64FB681033184607F012FFFB682433B6
:10068000184607F00DFFF86800210022002300F053
:1006900081F8FB6818461037BD4680BD90B585B01F
:1006A00000AF78607B68BB60BB68002B00D100BEE8
:1006B000BB685C6801F0DCFE03469C4211D1BB685C
:1006C000DB685A1EBB68DA60BB68DB68002B05D1AB
:1006D000B86800210022002300F05CF80123FB60D1
:1006E00001E00023FB60FB6818461437BD4690BD4F
:1006F00090B585B000AF786039607B68BB60BB683F
:10070000002B00D100BEBB685C6801F0B1FE03465F
:100710009C4207D1BB68DB685A1CBB68DA600123C6
:10072000FB600EE0B86800213A68002300F09CF9F5
:10073000F860FB68012B04D1BB68DB685A1CBB68FE
:10074000DA60FB6818461437BD4690BD80B584B0AA
:1007500000AF786039607B68002B00D100BE3A683A
:100760007B689A4200D900BE786800210222FFF718
:1007700013FFF860FB68002B02D0FB683A689A63AD
:10078000FB68002B00D100BEFB6818461037BD4641
:1007900080BD00BF80B58AB000AFF860B9607A60F4
:1007A0003B6000237B62FB683B623B6A002B00D10D
:1007B00000BEBB68002B04D13B6A1B6C002B00D031
:1007C00000BE3B68022B04D13B6ADB6B012B00D0DF
:1007D00000BE01F05DFE0346002B03D17B68002BB9
:1007E00000D000BE08F092FD3B6A9A6B3B6ADB6B5F
:1007F0009A4202D33B68022B21D1386AB9683A6821
:1008000000F0E4FAF8613B6A5B6A002B0CD03B6AAB
:100810002433184601F09AFB0346012B0BD1384BC9
:100820004FF080521A6006E0FB69002B03D0344B76
:100830004FF080521A6008F087FD01235BE07B686F
:10084000002B03D108F080FD002354E07B6A002BCD
:1008500006D107F11403184601F028FC01237B623E
:1008600008F072FD01F0A8F808F050FD3B6A5B6CDF
:10087000B3F1FF3F02D13B6A00225A643B6A9B6C92
:10088000B3F1FF3F02D13B6A00229A6408F05CFD9D
:1008900007F114023B1D1046194601F021FC0346E6
:1008A000002B20D1386A00F09FFB0346002B14D0A8
:1008B0003B6A03F110027B681046194601F06CFA9E
:1008C000386A00F017FB01F085F80346002B11D1C0
:1008D0000B4B4FF080521A600CE0386A00F00AFBB4
:1008E00001F078F87EE7386A00F004FB01F072F856
:1008F000002300E076E718462837BD4680BD00BFDC
:1009000004ED00E080B588B000AFF860B9607A60AF
:100910003B60FB68BB61BB69002B00D100BEBB68BC
:10092000002B04D1BB691B6C002B00D000BE3B68C0
:10093000022B04D1BB69DB6B012B00D000BE00236E
:100940007B614FF0500080F31188BB699A6BBB69E3
:10095000DB6B9A4202D33B68022B24D1B869B96899
:100960003A6800F033FABB699B6CB3F1FF3F12D1D8
:10097000BB695B6A002B13D0BB692433184601F0B6
:10098000E5FA0346002B0BD07B68002B08D07B6870
:1009900001221A6004E0BB699B6C5A1CBB699A6413
:1009A0000123FB6101E00023FB614FF0000080F3B5
:1009B0001188FB6918462037BD4680BD80B586B0DA
:1009C00000AF786039607B683B613B69002B00D1E8
:1009D00000BE3B691B6C002B00D000BE3B691B684E
:1009E000002B04D13B695B68002B00D000BE0023C4
:1009F000FB604FF0500080F311883B699A6B3B69B4
:100A0000DB6B9A4224D23B699B6B5A1C3B699A630D
:100A10003B699B6CB3F1FF3F12D13B695B6A002BD2
:100A200013D03B692433184601F090FA0346002B9B
:100A30000BD03B68002B08D03B6801221A6004E011
:100A40003B699B6C5A1C3B699A6401237B6101E002
:100A500000237B614FF0000080F311887B6918460A
:100A60001837BD4680BD00BF80B58AB000AFF860C2
:100A7000B9607A603B6000237B62FB683B623B6A43
:100A8000002B00D100BEBB68002B04D13B6A1B6C5D
:100A9000002B00D000BE01F0FBFC0346002B03D16D
:100AA0007B68002B00D000BE08F030FC3B6A9B6BDB
:100AB000002B3FD03B6ADB68FB61386AB96800F005
:100AC000F3F93B68002B1ED13B6A9B6B5A1E3B6AB5
:100AD0009A633B6A1B68002B04D101F0FBFD0246C0
:100AE0003B6A5A603B6A1B69002B1FD03B6A10337C
:100AF000184601F02BFA0346012B17D1444B4FF057
:100B000080521A6012E03B6AFA69DA603B6A5B6AFB
:100B1000002B0BD03B6A2433184601F017FA03462A
:100B2000002B03D03A4B4FF080521A6008F00CFCB7
:100B3000012368E07B68002B03D108F005FC00234B
:100B400061E07B6A002B06D107F11403184601F01F
:100B5000ADFA01237B6208F0F7FB00F02DFF08F0EF
:100B6000D5FB3B6A5B6CB3F1FF3F02D13B6A0022CD
:100B70005A643B6A9B6CB3F1FF3F02D13B6A00228F
:100B80009A6408F0E1FB07F114023B1D1046194678
:100B900001F0A6FA0346002B2DD1386A00F0F6F9D1
:100BA0000346002B21D03B6A1B68002B08D108F0BC
:100BB000ADFB3B6A5B68184601F088FC08F0C4FB9B
:100BC0003B6A03F124027B681046194601F0E4F801
:100BD000386A00F08FF900F0FDFE0346002B11D1BA
:100BE0000B4B4FF080521A600CE0386A00F082F92B
:100BF00000F0F0FE58E7386A00F07CF900F0EAFEF9
:100C0000002300E050E718462837BD4680BD00BFEE
:100C100004ED00E080B588B000AFF860B9607A609C
:100C2000FB68BB61BB69002B00D100BEBB68002B19
:100C300004D1BB691B6C002B00D000BE00237B617C
:100C40004FF0500080F31188BB699B6B002B28D0BC
:100C5000B869B96800F028F9BB699B6B5A1EBB697B
:100C60009A63BB695B6CB3F1FF3F12D1BB691B692F
:100C7000002B13D0BB691033184601F067F9034607
:100C8000002B0BD07B68002B08D07B6801221A60F8
:100C900004E0BB695B6C5A1CBB695A640123FB61AD
:100CA00001E00023FB614FF0000080F31188FB6935
:100CB00018462037BD4680BD80B586B000AF78604D
:100CC00039607B683B613B69002B00D100BE3B680B
:100CD000002B04D13B691B6C002B00D000BE3B698C
:100CE0001B6C002B00D100BE0023FB604FF05000B6
:100CF00080F311883B699B6B002B0CD03B69DB6850
:100D0000BB603869396800F0CFF83B69BA68DA60CF
:100D100001237B6101E000237B614FF0000080F341
:100D200011887B6918461837BD4680BD80B584B0F0
:100D300000AF78607B68002B00D100BE08F0E6FAB7
:100D40007B689B6BFB6008F0FFFAFB681846103766
:100D5000BD4680BD80B584B000AF78607B68FB6025
:100D6000FB68002B00D100BE08F0D0FAFB68DA6BFC
:100D7000FB689B6BD31ABB6008F0E6FABB681846A9
:100D80001037BD4680BD00BF80B485B000AF78602D
:100D90007B68002B00D100BE7B689B6BFB60FB680F
:100DA00018461437BD465DF8047B704780B584B0A3
:100DB00000AF78607B68FB60FB68002B00D100BE51
:100DC000F86802F077FA1037BD4680BD80B586B06E
:100DD00000AFF860B9607A6000237B61FB681B6C30
:100DE000002B0DD1FB681B68002B52D1FB685B68A0
:100DF000184601F0E3FB7861FB6800225A6048E086
:100E00007B68002B1AD1FB689A68FB681B6C104644
:100E1000B9681A4608F0A4FBFB689A68FB681B6C6B
:100E20001A44FB689A60FB689A68FB685B689A42A0
:100E30002FD3FB681A68FB689A602AE0FB68DA68BF
:100E4000FB681B6C1046B9681A4608F089FBFB6802
:100E5000DA68FB681B6C5B421A44FB68DA60FB686B
:100E6000DA68FB681B689A4207D2FB685A68FB681D
:100E70001B6C5B421A44FB68DA607B68022B08D16A
:100E8000FB689B6B002B04D0FB689B6B5A1EFB68B6
:100E90009A63FB689B6B5A1CFB689A637B691846D4
:100EA0001837BD4680BD00BF80B582B000AF786006
:100EB00039607B681B6C002B19D07B68DA687B6813
:100EC0001B6C1A447B68DA607B68DA687B685B6855
:100ED0009A4203D37B681A687B68DA607B68DA68B9
:100EE0007B681B6C386811461A4608F039FB0837D6
:100EF000BD4680BD80B582B000AF786008F006FACC
:100F000014E07B685B6A002B0AD07B6824331846A8
:100F100001F01CF80346002B03D001F02DF900E08E
:100F200008E07B689B6C5A1E7B689A647B689B6CAC
:100F3000002BE6D17B684FF0FF329A6408F004FA88
:100F400008F0E4F914E07B681B69002B0FD07B6884
:100F50001033184600F0FAFF0346002B01D001F0D1
:100F60000BF97B685B6C5A1E7B685A6400E003E0F7
:100F70007B685B6C002BE6D17B684FF0FF325A64D4
:100F800008F0E2F90837BD4680BD00BF80B584B0E7
:100F900000AF786008F0BAF97B689B6B002B02D138
:100FA0000123FB6001E00023FB6008F0CDF9FB6842
:100FB00018461037BD4680BD80B485B000AF78605C
:100FC0007B68002B00D100BE7B689B6B002B02D19D
:100FD0000123FB6001E00023FB60FB681846143727
:100FE000BD465DF8047B704780B584B000AF786083
:100FF00008F08CF97B689A6B7B68DB6B9A4202D1B4
:101000000123FB6001E00023FB6008F09DF9FB6811
:1010100018461037BD4680BD80B485B000AF7860FB
:101020007B68002B00D100BE7B689A6B7B68DB6B12
:101030009A4202D10123FB6001E00023FB60FB68C0
:1010400018461437BD465DF8047B704780B586B0FE
:1010500000AFF860B9607A60FB687B6108F056F910
:101060007B695B6CB3F1FF3F02D17B6900225A645C
:101070007B699B6CB3F1FF3F02D17B6900229A64CC
:1010800008F062F97B699B6B002B06D17B692433E6
:101090001846B9687A6800F015FF7869FFF72AFFEB
:1010A0001837BD4680BD00BF80B58AB002AFF8607A
:1010B000B9603B601346FB80FB68002B00D100BE8B
:1010C000BB6A23F040430C2B00D900BEFB881846B6
:1010D000396B01F081F978617B69002B00F0978012
:1010E000BB6A002B02DA0123BB6101E00023BB6174
:1010F000BB6A23F00043BB623B6B002B03D07B69D0
:1011000001225A6202E07B6900225A627B699A6D71
:10111000FB8803F18043013B9B0013443B613B6927
:1011200023F007033B613B6903F00703002B00D06A
:1011300000BEBB6A03F08043002B14BF01230023D1
:10114000DBB21A467B699A62BB6A23F08043BB62BA
:10115000FB8800937869B968BA6A7B6B01F018F86C
:101160007B699B6A00933869F9683A68BB6902F049
:10117000B5F802467B691A60FB6A002B02D0FB6A55
:101180007A691A6008F0C2F82D4B1B6801332C4AAB
:1011900013602C4B1B68002B09D12A4A7B69136012
:1011A000274B1B68012B0FD101F068F80CE0264B90
:1011B0001B68002B08D1234B1B685A6DBB6A9A42EF
:1011C00002D8204A7B691360204B1B6801331F4AF9
:1011D00013607B695B6D1A46012303FA02F21C4B14
:1011E0001B6813431A4A13607B695A6D13469B00B0
:1011F00013449B00174A1A447B692C331046194646
:1012000007F07AF90123FB6108F09EF802E04FF045
:10121000FF33FB61FB69012B0DD10B4B1B68002BCE
:1012200009D0084B1B685A6DBB6A9A4203D20A4B1D
:101230004FF080521A60FB6918462037BD4680BDCA
:1012400078010010000000108401001094010010CB
:10125000800100100400001004ED00E080B584B0AF
:1012600000AF786008F052F87B68002B02D12D4B5C
:101270001B6800E07B68FB60FB682C33184607F0B6
:1012800097F90346002B15D1FB685A6D2649134682
:101290009B0013449B000B441B68002B0AD1FB6886
:1012A0005B6D1A4601239340DA43204B1B681340C1
:1012B0001E4A1360FB681B6D002B04D0FB68403393
:1012C000184607F075F9FB682C331948194607F0E2
:1012D00013F9184B1B680133164A1360164B1B6831
:1012E0000133154A136008F02FF8144B1B68002BCC
:1012F00014D00C4B1B68FA689A4209D1104B1B683A
:10130000002B00D000BE0F4B4FF080521A6005E05A
:1013100007F0FCFF07F07EF908F016F81037BD461D
:1013200080BD00BF0000001004000010800100100C
:101330004C010010600100109401001084010010A5
:101340009C01001004ED00E080B586B000AF78602D
:10135000396000237B617B68002B00D100BE3B68B5
:10136000002B00D100BE2B4B1B68002B00D000BE11
:1013700000F022FB284B1B683B617B681A683B68C6
:101380001344FB607B681A683B699A420BD97B68FF
:101390001A68FB689A4211D9FA683B699A420DD9DA
:1013A00001237B610AE07B681A68FB689A4203D8D4
:1013B000FA683B699A4201D901237B617B68FA682C
:1013C0001A607B69002B17D0144B1B682C3318460E
:1013D00007F0EEF80346002B0BD1104B1B685B6D3A
:1013E0001A4601239340DA430D4B1B6813400C4A05
:1013F0001360F86800F0BAFF00F0ECFAB860BB6860
:10140000002B03D1074B4FF080521A601837BD46AE
:1014100080BD00BF9C0100107C0100100000001086
:101420008001001004ED00E080B584B000AF78606A
:101430000023FB607B68002B26D0184B1B68002B19
:1014400000D000BE00F0B8FA154B1A687B68134450
:10145000BB60144B1B682C33184607F0A9F80346F1
:10146000002B0BD10F4B1B685B6D1A460123934079
:10147000DA430D4B1B6813400B4A1360B86800F049
:1014800075FF00F0A7FAF860FB68002B03D1074B4B
:101490004FF080521A601037BD4680BD9C0100108D
:1014A0007C010010000000108001001004ED00E03D
:1014B00080B584B000AF786007F028FF7B68002B10
:1014C00002D1074B1B6800E07B68FB60FB685B6D2B
:1014D000BB6007F039FFBB6818461037BD4680BDBA
:1014E0000000001080B487B000AF786000237B61FB
:1014F0004FF0500080F311887B68002B02D1094B1C
:101500001B6800E07B683B613B695B6DFB604FF0F3
:10151000000080F31188FB6818461C37BD465DF853
:10152000047B70470000001080B586B000AF786083
:10153000396000237B613B680C2B00D900BE3B68FF
:101540000C2B01D90C233B6007F0E0FE7B68002BDD
:1015500002D1424B1B6800E07B683B613B69DB6E5C
:10156000FB60FA683B689A4272D03A68FB689A421C
:101570000DD93A4B1B683A699A420FD0374B1B681A
:101580005A6D3B689A4209D801237B6106E0334BD0
:101590001B683A699A4201D101237B613B695B6D0B
:1015A000BB603B69DA6E3B695B6D9A4202D13B6975
:1015B0003A685A653B693A68DA663B691B6C002BEE
:1015C00004DB3B68C3F10D023B691A643B69D96BCC
:1015D000BA6813469B0013449B00214A1344994266
:1015E00001D1012300E00023002B2AD03B692C33DA
:1015F000184606F0DDFF0346002B09D1BB68012227
:1016000002FA03F3DA43174B1B681340154A1360C1
:101610003B695B6D1A46012303FA02F2114B1B680A
:101620001343104A13603B695A6D13469B001344E1
:101630009B000B4A1A443B692C331046194606F0AE
:101640005BFF7B69012B03D1074B4FF080521A607F
:1016500007F07AFE1837BD4680BD00BF00000010BD
:10166000040000108001001004ED00E080B584B09B
:1016700000AF786007F04AFE7B68002B02D1304B48
:101680001B6800E07B68FB60FB682C33184606F0A3
:101690008FFF0346002B15D1FB685A6D294913466D
:1016A0009B0013449B000B441B68002B0AD1FB6872
:1016B0005B6D1A4601239340DA43234B1B681340AA
:1016C000214A1360FB681B6D002B04D0FB6840337C
:1016D000184606F06DFFFB682C331C48194606F0CF
:1016E0000BFF07F031FE164B1B68FA689A421AD1BD
:1016F000174B1B68002B09D0164B1B68002B00D022
:1017000000BE154B4FF080521A6016E00F4B1A685E
:10171000124B1B689A4203D1094B00221A600CE05D
:1017200000F0C4FA09E00A4B1B68002B05D007F053
:10173000EDFD06F06FFF07F007FE1037BD4680BDD8
:10174000000000100400001080010010640100106F
:10175000840100109C01001004ED00E078010010ED
:1017600080B485B000AF78600023FB607B68BB600D
:101770007B68002B00D100BEBB68DB6B0F4A934235
:1017800001D1012300E00023002B0FD0BB681B6DAB
:101790000B4A93420AD0BB681B6D002B01D1012379
:1017A00000E00023002B01D00123FB60FB681846FA
:1017B0001437BD465DF8047B704700BF640100101C
:1017C0003801001080B584B000AF78607B68FB60A2
:1017D0007B68002B00D100BEFB68002B37D01D4B6F
:1017E0001B68FA689A4232D007F090FDF868FFF75C
:1017F000B7FF0346012B28D1FB682C33184606F0AF
:10180000D7FEFB685B6D1A46012303FA02F2124B06
:101810001B681343104A1360FB685A6D13469B0004
:1018200013449B000D4A1A44FB682C33104619469A
:1018300006F062FEFB685A6D064B1B685B6D9A42B0
:1018400003D3074B4FF080521A6007F07DFD10372D
:10185000BD4680BD00000010800100100400001093
:1018600004ED00E080B586B000AF786000237B61B6
:101870007B683B617B68002B00D100BE0023FB60CE
:101880004FF0500080F311883869FFF769FF034675
:10189000012B31D11D4B1B68002B27D13B695A6DA1
:1018A0001B4B1B685B6D9A4201D301237B613B6933
:1018B0002C33184606F07CFE3B695B6D1A4601230B
:1018C00003FA02F2134B1B681343124A13603B697D
:1018D0005A6D13469B0013449B000F4A1A443B6900
:1018E0002C331046194606F007FE05E03B694033ED
:1018F0000A48194606F000FE4FF0000080F31188F8
:101900007B6918461837BD4680BD00BF9C0100109A
:1019100000000010800100100400001038010010C9
:1019200080B586B004AF4FF00043009300230193CD
:1019300000230293002303931348144980220023B9
:10194000FFF7B2FB78607B68012B02D101F066F9EA
:1019500078607B68012B10D14FF0500080F3118824
:101960000B4B4FF0FF321A600A4B01221A600A4BF0
:1019700000221A6001F056FD03E07B68002B00D1C5
:1019800000BE0837BD4680BD05860008D4BD0008EE
:1019900098010010840100107C01001080B500AF98
:1019A0004FF0500080F31188024B00221A6001F0C2
:1019B00059FD80BD8401001080B400AF044B1B684A
:1019C0000133034A1360BD465DF8047B704700BFD6
:1019D0009C01001080B582B000AF00237B60384BC3
:1019E0001B68002B00D100BE07F090FC344B1B6835
:1019F000013B334A1360324B1B68002B59D1314BEA
:101A00001B68002B55D030E02F4BDB68DB683B6058
:101A10003B684033184606F0CBFD3B682C33184634
:101A200006F0C6FD3B685B6D1A46012303FA02F21D
:101A3000264B1B681343254A13603B685A6D1346B7
:101A40009B0013449B00224A1A443B682C331046E7
:101A5000194606F051FD3B685A6D1E4B1B685B6DC5
:101A60009A4202D31C4B01221A60174B1B68002BB1
:101A7000CAD11A4B1B68002B11D00CE000F060F8A3
:101A80000346002B02D0144B01221A60134B1B6833
:101A9000013B124A1360114B1B68002BEED10E4B19
:101AA0001B68012B05D101237B600D4B4FF0805249
:101AB0001A6007F049FC7B6818460837BD4680BDB0
:101AC0009C01001078010010380100108001001006
:101AD00004000010000000108C01001088010010AC
:101AE00004ED00E080B483B000AF054B1B687B6061
:101AF0007B6818460C37BD465DF8047B704700BF15
:101B00007C01001080B483B000AF00237B60054BE4
:101B10001B683B603B6818460C37BD465DF8047B8C
:101B2000704700BF7C01001080B400AF034B1B68FE
:101B30001846BD465DF8047B704700BF7801001071
:101B400080B586B000AF00237B614D4B1B68002B36
:101B500040F086804B4B1B6801334A4A1360494B67
:101B60001B683B613B69002B16D1474B1B681B6808
:101B7000002B00D000BE444B1B68FB60434B1B682E
:101B8000414A1360414AFB681360414B1B680133B3
:101B90003F4A136006F03EFD3E4B1B683A699A428D
:101BA0004FD3394B1B681B68002B01D1012300E088
:101BB0000023002B04D0374B4FF0FF321A6040E077
:101BC000314B1B68DB68DB68BB60BB68DB6A7B6032
:101BD0003A697B689A4203D22E4A7B68136030E0F0
:101BE000BB682C33184606F0E3FCBB681B6D002B6A
:101BF00004D0BB684033184606F0DAFCBB685B6D66
:101C00001A46012303FA02F2234B1B681343224AAC
:101C10001360BB685A6D13469B0013449B001F4A18
:101C20001A44BB682C331046194606F065FCBB68A5
:101C30005A6D1B4B1B685B6D9A4201D301237B617C
:101C4000AFE7174B1B685A6D144913469B001344AA
:101C50009B000B441B68012B07D901237B6104E027
:101C6000104B1B6801330F4A13600F4B1B68002B8E
:101C700001D001237B617B6918461837BD4680BDC2
:101C80009C0100107C010010300100103401001094
:101C90009001001098010010800100100400001055
:101CA00000000010880100108C01001080B586B083
:101CB00000AF344B1B68002B03D0334B01221A605A
:101CC0005CE0314B00221A60304B1B689B6D7B61DE
:101CD0004FF0A5333B617B691A683B699A4211D189
:101CE0007B6904331A683B699A420BD17B690833DC
:101CF0001A683B699A4205D17B690C331A683B69C3
:101D00009A4208D0214B1A68204B1B685C3310465E
:101D1000194604F0F9FC1E4B1B687B607B68B3FA24
:101D200083F33B603B68C3F11F03FB601949FA680A
:101D300013469B0013449B000B441B68002B00D1EF
:101D400000BEFA6813469B0013449B00114A1344DB
:101D5000BB60BB685B685A68BB685A60BB685A68FE
:101D6000BB6808339A4204D1BB685B685A68BB6899
:101D70005A60BB685B68DB68044A13601837BD466D
:101D800080BD00BF9C0100108C01001000000010FD
:101D9000800100100400001080B584B000AF7860AE
:101DA00039607B68002B00D100BE194B1B684033A3
:101DB0007868194606F0C4FB154B1B682C3318468F
:101DC00006F0F6FB0346002B0BD1114B1B685B6D35
:101DD0001A4601239340DA430E4B1B6813400D4A09
:101DE00013603B68B3F1FF3F07D1094B1B682C33ED
:101DF0000948194606F080FB07E0084B1A683B6863
:101E00001344FB60F86800F0B1FA1037BD4680BD9E
:101E10000000001080010010640100107C0100101F
:101E200080B586B000AFF860B9607A60FB68002BBF
:101E300000D100BE1E4B1B68002B00D100BE1D4B05
:101E40001B68BA6842F000421A641A4B1B684033A0
:101E5000F868194606F050FB164B1B682C331846E1
:101E600006F0A6FB0346002B0BD1124B1B685B6DE3
:101E70001A4601239340DA430F4B1B6813400E4A66
:101E800013607B68B3F1FF3F07D10A4B1B682C330B
:101E90000A48194606F030FB07E0094B1A687B68D0
:101EA00013447B61786900F061FA1837BD4680BD44
:101EB0009C0100100000001080010010640100105F
:101EC0007C01001080B586B000AFF860B9607A6020
:101ED000FB68002B00D100BE184B1B684033F8682C
:101EE000194606F009FB154B1B682C33184606F003
:101EF0005FFB0346002B0BD1104B1B685B6D1A4632
:101F000001239340DA430E4B1B6813400C4A1360C5
:101F10007B68012B07D1094B1B682C3309481946F4
:101F200006F0EAFA07E0084B1A68BB6813447B61C5
:101F3000786900F01BFA1837BD4680BD000000101C
:101F400080010010640100107C01001080B584B095
:101F500000AF78607B68DB68DB68BB60BB68002B28
:101F600000D100BEBB684033184606F021FB1E4B73
:101F70001B68002B1ED1BB682C33184606F018FBDB
:101F8000BB685B6D1A46012303FA02F2174B1B680C
:101F90001343164A1360BB685A6D13469B001344E3
:101FA0009B00134A1A44BB682C331046194606F0AE
:101FB000A3FA05E0BB6840330E48194606F09CFAC8
:101FC000BB685A6D0C4B1B685B6D9A4205D90123A7
:101FD000FB600A4B01221A6001E00023FB60FB68F2
:101FE00018461037BD4680BD9C01001080010010CE
:101FF0000400001038010010000000108C010010D7
:1020000080B584B000AF78603960234B1B68002B2B
:1020100000D100BE3B6843F000427B681A607B68D9
:10202000DB68BB60BB68002B00D100BE786806F09F
:10203000BFFABB682C33184606F0BAFABB685B6D72
:102040001A46012303FA02F2144B1B681343134A86
:102050001360BB685A6D13469B0013449B00104AE3
:102060001A44BB682C331046194606F045FABB6883
:102070005A6D0C4B1B685B6D9A4205D90123FB60BE
:10208000094B01221A6001E00023FB60FB6818463F
:102090001037BD4680BD00BF9C01001080010010BC
:1020A00004000010000000108C01001080B483B008
:1020B00000AF78607B68002B00D100BE064B1A6829
:1020C0007B681A60054B1A687B685A600C37BD46FE
:1020D0005DF8047B704700BF900100107C01001088
:1020E00080B584B000AF786039607B68002B00D188
:1020F00000BE3B68002B00D100BE07F007F91C4B67
:102100001B68BB603B681B68B3F1FF3F02D1002333
:10211000FB6026E07B681A68164B1B689A4207D062
:102120007B685A68BB689A4202D80123FB6018E0BA
:102130007B685B68BA68D21A3B681B689A420ED209
:102140003B681A687B685968BB68CB1A1A443B68BD
:102150001A607868FFF7AAFF0023FB6001E0012303
:10216000FB6007F0F1F8FB6818461037BD4680BDEC
:102170007C0100109001001080B400AF034B0122DD
:102180001A60BD465DF8047B704700BF8C010010EB
:1021900080B586B000AFF860B9607A603B6000231C
:1021A0007B6113E0BA687B6913441978FA687B692C
:1021B000134458330A461A71BA687B6913441B7872
:1021C000002B00D105E07B6901337B617B690F2B1C
:1021D000E8D9FB68002283F86B207B680C2B01D9BF
:1021E0000C237B60FB687A685A65FB687A68DA665C
:1021F000FB6800221A67FB682C33184606F070F95A
:10220000FB684033184606F06BF9FB68FA689A637E
:102210007B68C3F10D02FB681A64FB68FA68DA6434
:10222000FB68191DFB689A6D3B8C0846396801F004
:102230002DFAFB6800225A67FB68002283F8782099
:102240001837BD4680BD00BF80B584B000AF786050
:1022500039607B68002B02D1074B1B6800E07B686C
:10226000FB60FB680433184639680022002301F044
:102270000DFA1037BD4680BD0000001080B582B059
:1022800000AF00237B600CE07A6813469B00134488
:102290009B00114A1344184606F002F97B6801338B
:1022A0007B607B680C2BEFD90C4806F0F9F80C48E2
:1022B00006F0F6F80B4806F0F3F80B4806F0F0F8D5
:1022C0000A4806F0EDF80A4B044A1A60094B044A22
:1022D0001A600837BD4680BD0400001008010010D8
:1022E0001C010010380100104C01001064010010A6
:1022F000300100103401001080B582B000AF28E03A
:10230000FFF75AFB164B1B68002B0CBF0123002361
:10231000DBB27B60FFF75EFB7B68002B19D106F018
:10232000F5FF0F4BDB68DB683B603B682C331846DE
:1023300006F03EF90B4B1B68013B0A4A13600A4B3F
:102340001B68013B084A136006F0FEFF386800F086
:102350007BF8054B1B68002BD2D10837BD4680BDEA
:102360004C010010780100106001001080B582B0AF
:1023700000AF7860134B1B687A68DA62124B1B68F7
:102380007A689A4209D2114B1A680E4B1B682C339B
:102390001046194606F0D4F810E00D4B1A68094BA8
:1023A0001B682C331046194606F0CAF8094B1B6807
:1023B0007A689A4202D2074A7B6813600837BD46A2
:1023C00080BD00BF000000107C010010340100102F
:1023D000300100109801001080B584B000AF0346B2
:1023E0003960FB803B68002B06D1FB889B001846B8
:1023F00000F032FF034600E03B68BB60BB68002B87
:102400000ED07C2000F028FFF860FB68002B03D082
:10241000FB68BA689A6505E0B86800F04BFF01E018
:102420000023FB60FB68002B08D0FB689A6DFB88DB
:102430009B001046A5211A4607F09DF8FB68184638
:102440001037BD4680BD00BF80B582B000AF786058
:102450007B685B6A002B04D17B689B6D184600F09B
:1024600029FF786800F026FF0837BD4680BD00BF11
:1024700080B483B000AF054B1B687B607B68184657
:102480000C37BD465DF8047B704700BF00000010AC
:1024900080B483B000AF0B4B1B68002B02D101232B
:1024A0007B6008E0084B1B68002B02D102237B6095
:1024B00001E000237B607B6818460C37BD465DF861
:1024C000047B7047840100109C01001080B584B02B
:1024D00000AF78607B68FB607B68002B64D0FB6892
:1024E0005A6D334B1B685B6D9A425DD2FB681B6C67
:1024F000002B06DB2E4B1B685B6DC3F10D02FB68E6
:102500001A64FB68D96BFB685A6D13469B00134431
:102510009B00284A1344994201D1012300E0002383
:10252000002B3CD0FB682C33184606F041F80346DC
:10253000002B15D1FB685A6D1E4913469B001344AE
:102540009B000B441B68002B0AD1FB685B6D1A468D
:1025500001239340DA43184B1B681340164A13605B
:10256000134B1B685A6DFB685A65FB685B6D1A4616
:10257000012303FA02F2104B1B6813430E4A136047
:10258000FB685A6D13469B0013449B00094A1A448A
:10259000FB682C331046194605F0AEFF04E0044BEF
:1025A0001B685A6DFB685A651037BD4680BD00BF79
:1025B00000000010040000108001001080B584B0FD
:1025C00000AF78607B68BB600023FB607B68002BFA
:1025D0005CD0314B1B68BA689A4200D000BEBB6821
:1025E0001B6F002B00D100BEBB681B6F5A1EBB685F
:1025F0001A67BB685A6DBB68DB6E9A4246D0BB68EF
:102600001B6F002B42D1BB682C33184605F0D0FF5E
:102610000346002B15D1BB685A6D204913469B0019
:1026200013449B000B441B68002B0AD1BB685B6DF5
:102630001A4601239340DA43194B1B681340184A8A
:102640001360BB68DA6EBB685A65BB685B6DC3F12B
:102650000D02BB681A64BB685B6D1A46012303FA5E
:1026600002F20F4B1B6813430D4A1360BB685A6D8F
:1026700013469B0013449B00084A1A44BB682C3342
:102680001046194605F038FF0123FB60FB68184629
:102690001037BD4680BD00BF0000001004000010D0
:1026A0008001001080B483B000AF094B1B681B6C25
:1026B0007B60074B1B68064A1268526DC2F10D021F
:1026C0001A647B6818460C37BD465DF8047B70477A
:1026D0000000001080B400AF074B1B68002B04D033
:1026E000054B1B681A6F01321A67034B1B681846AB
:1026F000BD465DF8047B70470000001080B584B0D3
:1027000000AF7860396006F001FE2F4B1B685B6FED
:10271000002B34D12C4B1B68012283F878203B68B6
:10272000002B2CD0284B1B682C33184605F040FF9B
:102730000346002B0BD1244B1B685B6D1A4601230B
:102740009340DA43214B1B681340204A13603B68D7
:10275000B3F1FF3F07D11C4B1B682C331C481946B3
:1027600005F0CAFE07E01B4B1A683B681344FB6088
:10277000F868FFF7FBFD184B4FF080521A6006F027
:10278000E3FD06F0C3FD104B1B685B6FBB60BB68CD
:10279000002B0CD07B68002B04D00B4B1B68002255
:1027A0005A6704E0084B1B685A6F013A5A67064B98
:1027B0001B68002283F8782006F0C6FDBB68184627
:1027C0001037BD4680BD00BF000000108001001022
:1027D000640100107C01001004ED00E080B586B0BB
:1027E00000AFF860B9607A603B6006F08FFD374B50
:1027F0001B6893F87830DBB2022B3BD0334B1B685D
:10280000596FFA68D2430A405A67304B1B6801225D
:1028100083F878203B68002B2CD02C4B1B682C3382
:10282000184605F0C5FE0346002B0BD1274B1B684D
:102830005B6D1A4601239340DA43254B1B68134016
:10284000234A13603B68B3F1FF3F07D11F4B1B685E
:102850002C332048194605F04FFE07E01E4B1A683E
:102860003B6813443B613869FFF780FD1B4B4FF019
:1028700080521A6006F068FD06F048FD7B68002B68
:1028800004D0124B1B685A6F7B681A600F4B1B6891
:1028900093F87830DBB2012B02D100237B6108E092
:1028A0000A4B1B68596FBA68D2430A405A67012322
:1028B0007B61064B1B68002283F8782006F044FDFC
:1028C0007B6918461837BD4680BD00BF0000001068
:1028D00080010010640100107C01001004ED00E094
:1028E00080B588B000AFF860B9603B601346FB71FB
:1028F0000123FB61FB68002B00D100BEFB68BB61BC
:1029000006F004FD3B68002B03D0BB695A6F3B689F
:102910001A60BB6993F87830FB75BB69022283F8B3
:102920007820FB79042B28D801A252F823F000BFAD
:102930007B29000845290008532900085F29000861
:1029400067290008BB695A6FBB681A43BB695A679D
:1029500013E0BB695B6F5A1CBB695A670DE0BB692A
:10296000BA685A6709E0FB7D022B03D0BB69BA68DD
:102970005A6701E00023FB6100BFFB7D012B2DD1D5
:10298000BB692C33184605F013FEBB695B6D1A4614
:10299000012303FA02F2154B1B681343134A136019
:1029A000BB695A6D13469B0013449B00104A1A449E
:1029B000BB692C331046194605F09EFDBB691B6DA3
:1029C000002B00D000BEBB695A6D0A4B1B685B6DC3
:1029D0009A4203D9084B4FF080521A6006F0B4FCBB
:1029E000FB6918462037BD4680BD00BF800100103E
:1029F000040000100000001004ED00E080B588B075
:102A000000AFF860B9603B601346FB710123FB61C6
:102A1000FB68002B00D100BEFB68BB6100237B611B
:102A20004FF0500080F311883B68002B03D0BB6946
:102A30005A6F3B681A60BB6993F87830FB74BB69C6
:102A4000022283F87820FB79042B28D801A252F8BF
:102A500023F000BF9F2A0008692A0008772A00088F
:102A6000832A00088B2A0008BB695A6FBB681A4387
:102A7000BB695A6713E0BB695B6F5A1CBB695A6735
:102A80000DE0BB69BA685A6709E0FB7C022B03D0F2
:102A9000BB69BA685A6701E00023FB6100BFFB7C99
:102AA000012B3AD1BB691B6D002B00D000BE1F4B20
:102AB0001B68002B1ED1BB692C33184605F078FD2E
:102AC000BB695B6D1A46012303FA02F2184B1B68BF
:102AD0001343174A1360BB695A6D13469B00134496
:102AE0009B00144A1A44BB692C331046194605F062
:102AF00003FD05E0BB6940330F48194605F0FCFCB7
:102B0000BB695A6D0D4B1B685B6D9A4205D9BB6A58
:102B1000002B02D0BB6A01221A604FF0000080F344
:102B20001188FB6918462037BD4680BD9C01001006
:102B30008001001004000010380100100000001097
:102B400080B586B000AF786039607B68002B00D11B
:102B500000BE7B687B6100233B614FF0500080F337
:102B600011887B6993F87830FB737B69022283F8C4
:102B700078207B695B6F5A1C7B695A67FB7B012B52
:102B80003AD17B691B6D002B00D000BE1E4B1B6829
:102B9000002B1ED17B692C33184605F009FD7B699B
:102BA0005B6D1A46012303FA02F2184B1B681343AC
:102BB000164A13607B695A6D13469B0013449B00B1
:102BC000134A1A447B692C331046194605F094FCCD
:102BD00005E07B6940330F48194605F08DFC7B69A1
:102BE0005A6D0D4B1B685B6D9A4205D93B68002BF3
:102BF00002D03B6801221A604FF0000080F3118878
:102C00001837BD4680BD00BF9C0100108001001038
:102C100004000010380100100000001080B586B0DC
:102C200004AF00237B6000F0A1FA0E4B1B68002B61
:102C30000ED00D4B00930023019300230293002339
:102C400003930A480A4980220023FEF72DFA786090
:102C50007B68002B00D100BE7B6818460837BD4654
:102C600080BD00BFD001001001000080012E0008CF
:102C7000DCBD000880B586B000AFF860B9607A604E
:102C80003B60BB68002B02D100237B611CE0282045
:102C900000F0E2FA78617B69002B15D000F066FA4B
:102CA0007B69FA681A607B69BA689A617B697A689D
:102CB000DA617B693A681A627B693A6A5A627B69AF
:102CC0000433184605F00CFCBB68002B00D100BE95
:102CD0007B6918461837BD4680BD00BF80B588B0F7
:102CE00000AFF860B9607A603B600023FB61FB686D
:102CF000002B00D100BE1D4B1B68002B30D0BB68E1
:102D00003B617B687B61FB68BB61BB68052B1CD8A2
:102D1000FFF7BEFB0346022B0BD1144B1A6807F1D9
:102D2000100310461946BA6A0023FDF733FDF86117
:102D300016E00E4B1A6807F11003104619460022E0
:102D40000023FDF727FDF8610AE0084B1A6807F138
:102D50001003104619463A680023FDF7D3FDF861C9
:102D6000FB6918462037BD4680BD00BFD00100106A
:102D700080B485B000AF78607B68FB607B68002B17
:102D800000D100BEFB681B6818461437BD465DF8CD
:102D9000047B704780B586B002AF78603960174B0E
:102DA0001B68DB68DB68FB60FB680433184605F0D2
:102DB000FFFBFB68DB69012B19D1FB689A697B6813
:102DC0001344F86819463A687B6800F0B9F803467E
:102DD000012B0CD100230093F86800217A680023AE
:102DE000FFF77CFFB860BB68002B00D100BEFB681A
:102DF0005B6AF86898471037BD4680BDC80100106F
:102E000080B584B000AF786007F10803184600F081
:102E100053F8F860BB68F868194600F003F800F052
:102E2000D1F8F1E780B584B000AF78603960FEF783
:102E3000C3FD07F10803184600F062F8F860BB68AC
:102E4000002B2DD13B68002B0AD17A68FB689A428F
:102E500006D8FEF7BFFD7868F968FFF79BFF21E011
:102E60003B68002B08D0114B1B681B68002B0CBF64
:102E700001230023DBB23B600D4B19687A68FB68C5
:102E8000D31A084619463A68FEF7E0F8FEF7A2FDA5
:102E90000346002B06D1074B4FF080521A6001E029
:102EA000FEF798FD1037BD4680BD00BFCC01001075
:102EB000D001001004ED00E080B485B000AF786070
:102EC0000E4B1B681B68002B0CBF01230023DBB2D9
:102ED0001A467B681A607B681B68002B05D1074B7C
:102EE0001B68DB681B68FB6001E00023FB60FB687C
:102EF00018461437BD465DF8047B7047C8010010C2
:102F000080B584B000AF7860FEF7ECFDF8600B4B45
:102F10001B68FA689A4205D200F0D2F87B68012259
:102F20001A6002E07B6800221A60044AFB681360A2
:102F3000FB6818461037BD4680BD00BFD4010010A5
:102F400080B586B000AFF860B9607A603B6000235E
:102F50007B61FB68BA685A60FB68FA681A61BA68F4
:102F60007B689A4212D87A683B68D21AFB689B69E0
:102F70009A4202D301237B611BE0104B1A68FB6865
:102F800004331046194605F0DBFA12E07A683B6814
:102F90009A4206D2BA683B689A4202D301237B6107
:102FA00007E0074B1A68FB6804331046194605F022
:102FB000C7FA7B6918461837BD4680BDCC010010A2
:102FC000C801001080B58AB002AF67E03B69FB61C1
:102FD000FB695B69002B04D0FB690433184605F0DC
:102FE000E7FA3B1D1846FFF78BFFB861BB68092B5A
:102FF00053D801A252F823F02130000821300008F4
:10300000213000089D3000086D3000089330000822
:1030100021300008213000089D3000086D30000884
:10302000FA68FB699B691A44FB68F8691146BA693A
:10303000FFF786FF0346012B17D1FB695B6AF8692E
:103040009847FB69DB69012B0FD1FA68FB699B6923
:103050001A4400230093F86900210023FFF73EFE85
:1030600078617B69002B00D100BE17E0FA68FB692C
:103070009A61FB699B69002B00D100BEFB699A69CC
:10308000BB691344F8691946BA69BB69FFF758FF71
:1030900004E0F86900F00EF900E000BF074B1A6881
:1030A00007F108031046194600220023FDF7DCFC57
:1030B0000346002B8AD12037BD4680BDD0010010C9
:1030C00080B588B002AF3BE0264B1B68DB681B680D
:1030D0007B61244B1B68DB68DB683B613B69043325
:1030E000184605F065FA3B695B6A386998473B69A1
:1030F000DB69012B24D13B699A697B691344FB602E
:10310000FA687B699A420ED93B69FA685A603B6952
:103110003A691A61134B1A683B6904331046194621
:1031200005F00EFA0CE000230093386900217A695B
:103130000023FFF7D3FDB860BB68002B00D100BEB1
:10314000084B1B681B68002BBED1064B1B687B60BD
:10315000054B1B68034A1360034A7B6813601837EA
:10316000BD4680BDC8010010CC01001080B500AF85
:1031700006F0CCF80F4B1B68002B18D10E4805F059
:103180008FF90E4805F08CF90D4B0B4A1A600D4B68
:103190000A4A1A600A200C210022FDF7FDF90246B6
:1031A000044B1A60034B1B68002B00D100BE06F0D5
:1031B000CBF880BDD0010010A0010010B4010010B8
:1031C000C8010010CC01001080B584B000AF786059
:1031D0007B68FB607B68002B00D100BE06F096F890
:1031E000FB685B69002B14BF01230023DBB2BB60CB
:1031F00006F0AAF8BB6818461037BD4680BD00BF70
:1032000080B584B000AF78607B68FB607B68002B82
:1032100000D100BE06F07AF8FB681B6ABB6006F0BE
:1032200093F8BB6818461037BD4680BD80B584B0A2
:1032300000AF786039607B68FB607B68002B00D151
:1032400000BE06F063F8FB683A681A6206F07CF884
:103250001037BD4680BD00BF80B584B000AF786038
:10326000FEF7AAFB064B1B681846796805F096FF27
:10327000F860FEF7AFFBFB6818461037BD4680BD0F
:103280007C00002080B584B000AF78603960FEF724
:1032900093FB074B1B68184639687A6805F09AFF5C
:1032A000F860FEF797FBFB6818461037BD4680BDF7
:1032B0007C00002080B582B000AF7860FEF77CFB18
:1032C000054B1B681846796805F0F6FFFEF782FB90
:1032D0000837BD4680BD00BF7C00002080B485B0AB
:1032E00000AFF860B9607A603B60FB68043BFB604C
:1032F000FB684FF080721A60FB68043BFB60BA68A1
:10330000FB681A60FB68043BFB60134AFB681A60A9
:10331000FB68143BFB607A68FB681A60FB68243B1F
:10332000FB603B68012B03D1FB6802221A6002E0BC
:10333000FB6803221A60BB69002B05D0FB68843B45
:10334000FB60FB6800221A60FB6818461437BD4614
:103350005DF8047B704700BF098200081EF0040F6F
:103360000CBFEFF30880EFF30980FFE780B584B06E
:1033700000AF78607B6818331B68023B1B78FB73D7
:10338000FB7B012B0DD0022B14D0002B00D018E0BA
:103390000D4A0D4B1B6843F07043136000F018F8A2
:1033A0000FE00A4B4FF080521A60BFF34F8FBFF30C
:1033B0006F8F06E0EFF3148121F0010181F314888F
:1033C00000BF1037BD4680BD1CED00E004ED00E0FD
:1033D000DFF830040068006880F30888104B196833
:1033E000086801F10401DFF82024B1E8F00FA2E839
:1033F000F00F1968896A11F0010F1EBF02C8E1EED3
:10340000101AB0EC200AB0E8F80F83F3148880F3A8
:1034100009884FF0000080F31188DFF8F0E370476F
:103420000000001080B500AF0C4A0C4B1B6843F441
:1034300070031360094A094B1B6843F07043136023
:1034400000F080F800F094F800F06AF8044B0022D5
:103450001A6000DF0023184680BD00BF20ED00E0A9
:103460001000002080B400AF044B1B68B3F57A7FD6
:1034700000D000BEBD465DF8047B70471000002000
:10348000EFF309801B4B1A68EFF3148120E9F20F68
:10349000916A11F0010F1EBF20ED200AF1EE101A03
:1034A00040F8041D10602DE908404FF0500080F3F3
:1034B0001188FEF7FBFB4FF0000080F31188BDE898
:1034C00008401968086801F10401CF4AB1E8F00F1B
:1034D000A2E8F00F4B6813F0010F1EBF02C8E1EE27
:1034E000101AB0EC200AB0E8F80F83F3148880F3C8
:1034F000098870470000001008B54FF0500080F3B5
:103500001188FEF71DFB18B1044B4FF080521A6072
:103510004FF0000080F3118808BD00BF04ED00E00B
:1035200080B400AF044B054A1A60054B07221A60AD
:10353000BD465DF8047B704714E000E03F90020058
:1035400010E000E080B400AF074A074B1B6843F46B
:1035500070031360054A054B1B6823F0404313605A
:10356000BD465DF8047B704788ED00E034EF00E075
:1035700098B500AF284B1B68B3F5006F4BD1274AB5
:10358000274B43F010031360264C274A244BD31AD1
:10359000184600F05BF80246244B134323601F4A91
:1035A0001F4B43F0110313601E4C214A1C4BD31ACE
:1035B000184600F04BF802461E4B13432360174A8F
:1035C0001D4B43F012031360164C1C4A1A4BD31ABE
:1035D000184600F03BF8034643F0837343F00113B1
:1035E00023600E4B164A1A600E4C6FF0604000F0DC
:1035F0002DF8034643F0985343F001032360114A2A
:10360000104B1B6843F4803313600F4A0E4B1B684A
:1036100043F00503136098BD90ED00E09CED00E0E1
:1036200000000008A0ED00E00000100801000706FF
:103630000040000801000705000000100002001013
:103640001300004024ED00E094ED00E080B485B06C
:1036500000AF78600423BB602023FB600AE07A6837
:10366000FB689A4200D808E0BB680133BB60FB6886
:103670005B00FB60BB681E2BF1D9BB685B00184682
:103680001437BD465DF8047B704700BF80B586B037
:1036900000AFF860B9607A607B80BB68002B39D1DD
:1036A000534B43F01402FB681A60524A504BD31A32
:1036B0001846FFF7CBFF02464F4B1343FA6853609F
:1036C0004E4B43F01502FB689A604D4A4B4BD31AA0
:1036D0001846FFF7BBFF034643F0837343F0011323
:1036E000FA68D36002233B6110E03B69043343F086
:1036F0001001FB683A6943F83210FA683B69DB0055
:10370000134400225A603B6901333B613B69032B40
:10371000EBD96AE07B88002B0ED07B6843F0140263
:10372000FB681A607B889B001846FFF78FFF0246F4
:10373000314B1343FA68536000237B6101233B61E3
:1037400050E07A6913465B0013449B001A46BB683D
:1037500013445B68002B31D07A6913465B00134435
:103760009B001A46BB6813441B681A463B69043326
:10377000134343F01001FB683A6943F832107A6949
:1037800013465B0013449B001A46BB6813445B68F6
:103790001846FFF75BFF01467A6913465B00134446
:1037A0009B001A46BB6813449B680B4343F001021D
:1037B000F9683B69DB000B445A600DE03B69043358
:1037C00043F01001FB683A6943F83210FA683B692C
:1037D000DB00134400225A607B6901337B613B6943
:1037E00001333B613B69032BABD91837BD4680BD24
:1037F000000000200000022001000703000000106C
:103800000002001008ED00E09CED00E0FDFFFFFF6E
:10381000FFFFFFFFFFFFFFFFFFFFFFFFFFFFFFFFB8
:10382000FFFFFFFFFFFFFFFFFFFFFFFFFFFFFFFFA8
:10383000FFFFFFFFFFFFFFFFFFFFFFFFFFFFFFFF98
:10384000FFFFFFFFFFFFFFFFFFFFFFFFFFFFFFFF88
:104000001CBE0008000000207C0000201CBE000830
:10401000000000100000001080000020A008002018
:08402000000000100000001078
:1040280080B500AF0C4A0C4B1B6843F40073136057
:10403800094A094B1B6843F480631360064A064B20
:104048001B6843F480731360032000F04BFD00F0FD
:1040580005F80023184680BD003C024080B400AF3C
:10406800BD465DF8047B704780B582B000AF7860CC
:104078007B68002B01D1012339E17B681B689E4ACC
:1040880093420ED07B681B689C4A934209D07B6898
:104098001B689B4A934204D09A4840F20B1102F0E5
:1040A8009FF97B685B68002B13D07B685B68B3F56E
:1040B800803F0ED07B685B68B3F5003F09D07B6812
:1040C8005B68B3F5403F04D08E484FF4867102F028
:1040D80087F97B689B68002B13D07B689B68B3F1DA
:1040E800807F0ED07B689B68B3F1007F09D07B6826
:1040F8009B68B3F1407F04D0824840F20D1102F072
:104108006FF97B681B69002B08D07B681B69012B42
:1041180004D07C484FF4877102F062F97B689B6990
:10412800002B08D07B689B69012B04D0754840F2AE
:104138000F1102F055F97B68DB6A002B54D07B68BD
:10414800DB6AB3F1807F4FD07B68DB6AB3F1007F15
:104158004AD07B68DB6AB3F1407F45D07B68DB6A75
:10416800B3F1806F40D07B68DB6AB3F1A06F3BD0BE
:104178007B68DB6AB3F1C06F36D07B68DB6AB3F16A
:10418800E06F31D07B68DB6AB3F1006F2CD07B68BD
:10419800DB6AB3F1106F27D07B68DB6AB3F1206F5D
:1041A80022D07B68DB6AB3F1306F1DD07B68DB6A95
:1041B800B3F1406F18D07B68DB6AB3F1506F13D04E
:1041C8007B68DB6AB3F1606F0ED07B68DB6AB3F1A2
:1041D800706F09D07B68DB6A4B4A934204D0494828
:1041E8004FF4887102F0FCF87B68DB68002B09D07B
:1041F8007B68DB68B3F5006F04D0424840F21111C8
:1042080002F0EEF87B681B6A002B03D07B681B6A00
:10421800102B04D93B484FF4897102F0E1F87B6810
:10422800DB69002B08D07B68DB69012B04D035489B
:1042380040F2131102F0D4F87B685B69012B0CD0B3
:104248007B685B69002B08D07B685B69022B04D014
:104258002C484FF48A7102F0C3F87B685B6A002B24
:1042680008D07B685B6A012B04D0264840F2151100
:1042780002F0B6F87B68DB6A234A934217D07B6862
:104288001B6B002B13D07B681B6BB3F1805F0ED0C8
:104298007B681B6BB3F1005F09D07B681B6BB3F1C4
:1042A800405F04D0174840F2191102F099F87B6872
:1042B80093F83D30DBB2002B06D17B68002283F8EF
:1042C8003C20786800F022F87B68022283F83D20C1
:1042D800786800F039FA7B6800221A647B6801224A
:1042E80083F83D207B68002283F83C200023184691
:1042F8000837BD4680BD00BF0020014000210140B5
:1043080000220140D49D00080100000F80B483B052
:1043180000AF78600C37BD465DF8047B704700BF7E
:1043280080B584B000AF78600023FB607B689B6930
:10433800002B08D07B689B69012B04D04E4840F2C3
:10434800772102F04DF87B681B6B002B13D07B683C
:104358001B6BB3F1805F0ED07B681B6BB3F1005F02
:1043680009D07B681B6BB3F1405F04D042484FF41F
:104378001E7102F035F87B6893F83C30012B01D1AF
:10438800022374E07B68012283F83C207B6893F861
:104398003D30DBB2222B04D17B68322283F83D20EA
:1043A80003E07B68122283F83D207B6800221A64B0
:1043B8007B681B689B6803F00103002B18D17B689E
:1043C8001B687A681268926842F001029A602B4B67
:1043D8001B682B4AA2FB03239A0C13465B00134469
:1043E800FB6002E0FB68013BFB60FB68002BF9D136
:1043F8007B681B687A681268526842F080625A606B
:104408007B681B687A681268526842F020025A601A
:104418007B68002283F83C201A4B5B6803F01F037B
:10442800002B0FD17B681B689B6803F04053002B5F
:104438001CD17B681B687A681268926842F08042D7
:104448009A6013E07B681B680F4A93420ED17B6821
:104458001B689B6803F04053002B07D17B681B68DF
:104468007A681268926842F080429A60002318467F
:104478001037BD4680BD00BFD49D00080C00002049
:1044880083DE1B43002301400020014090B585B026
:1044980000AF786039600023FB603B681B68122B13
:1044A80004D99C4840F2244101F09AFF3B685B68BC
:1044B800002B03D03B685B68102B04D9954840F269
:1044C800254101F08DFF3B689B68002B20D03B689D
:1044D8009B68012B1CD03B689B68022B18D03B685B
:1044E8009B68032B14D03B689B68042B10D03B6857
:1044F8009B68052B0CD03B689B68062B08D03B6853
:104508009B68072B04D0834840F2264101F068FFDE
:104518007B6893F83C30012B01D102230FE17B68C3
:10452800012283F83C203B681B68092B26D97B684D
:104538001A687B681B68D9683B681B689BB2184679
:1045480003465B0003441E3B184607238340DB43B6
:104558000B40D3607B681A687B681B68D9683B6826
:1045680098683B681B689BB21C4623465B00234443
:104578001E3B00FA03F30B43D36023E07B681A6801
:104588007B681B6819693B681B689BB21846034621
:104598005B000344184607238340DB430B40136149
:1045A8007B681A687B681B6819693B6898683B6870
:1045B8001B689BB21C4623465B00234400FA03F3A6
:1045C8000B4313613B685B68062B24D87B6819682A
:1045D8007B681B68586B3B685A6813469B001344FA
:1045E800053B1A461F239340DB4303404B637B681C
:1045F80019687B681B68586B3B681B689BB21C4634
:104608003B685A6813469B001344053B04FA03F3BE
:1046180003434B634CE03B685B680C2B24D87B68F6
:1046280019687B681B68186B3B685A6813469B00BF
:104638001344233B1A461F239340DB4303400B6379
:104648007B6819687B681B68186B3B681B689BB2A2
:104658001C463B685A6813469B001344233B04FAE4
:1046680003F303430B6323E07B6819687B681B68CB
:10467800D86A3B685A6813469B001344413B1A4664
:104688001F239340DB430340CB627B6819687B6838
:104698001B68D86A3B681B689BB21C463B685A6813
:1046A80013469B001344413B04FA03F30343CB62D4
:1046B8007B681B68184A934209D13B681B68122B18
:1046C80005D1164A154B5B6843F4800353607B6839
:1046D8001B68114A93422DD13B681B68102B03D0ED
:1046E8003B681B68112B25D10C4A0C4B5B6843F4C3
:1046F800000353603B681B68102B1BD1084B1B68D9
:10470800084AA2FB03239A0C13469B0013445B0040
:10471800FB600CE0D49D000800200140002301400C
:104728000C00002083DE1B43FB68013BFB60FB6839
:10473800002BF9D17B68002283F83C20002318461F
:104748001437BD4690BD00BF80B584B000AF786017
:10475800814A814B5B6823F4403353607E497E4B2A
:104768005A687B685B6813434B607B681B687A6890
:104778001268526822F480725A607B681B687A68F3
:10478800126851687A68126912020A435A607B6893
:104798001B687A681268526822F040725A607B6817
:1047A8001B687A68126851687A6892680A435A6086
:1047B8007B681B687A681268926822F400629A60C3
:1047C8007B681B687A68126891687A68D2680A43BD
:1047D8009A607B68DB6A614A934222D07B681B68D7
:1047E8007A681268926822F070629A607B681B6827
:1047F8007A68126891687A68D26A0A439A607B6814
:104808001B687A681268926822F040529A607B6846
:104818001B687A68126891687A68126B0A439A6012
:104828000FE07B681B687A681268926822F07062F1
:104838009A607B681B687A681268926822F0405216
:104848009A607B681B687A681268926822F0020294
:104858009A607B681B687A68126891687A689269BE
:1048680052000A439A607B685B6A002B32D07B68EF
:104878009B6A002B03D07B689B6A082B04D93848B5
:1048880040F2225101F0ACFD7B681B687A6812681F
:10489800526842F400625A607B681B687A68126842
:1048A800526822F460425A607B689B6A5A1E4FF431
:1048B8006043FB60FB6893FAA3F3BB60BB68B3FA81
:1048C80083F39A407B681B687968096849680A43DA
:1048D8005A6007E07B681B687A681268526822F49D
:1048E80000625A607B681B687A681268D26A22F490
:1048F8007002DA627B681B687A681268D16A7A6823
:10490800126A013A12050A43DA627B681B687A6800
:104918001268926822F400729A607B681B687A6851
:10492800126891687A68D26952020A439A607B6871
:104938001B687A681268926822F480629A607B68C1
:104948001B687A68126891687A68526992020A4309
:104958009A601037BD4680BD002301400100000F5A
:10496800D49D000880B485B000AF78607B6803F000
:104978000703FB600C4BDB68BB60BA684FF6FF03AC
:104988001340BB60FB681A02BB68134343F0BF6364
:1049980043F40033BB60044ABB68D3601437BD4698
:1049A8005DF8047B704700BF00ED00E080B400AF05
:1049B800044BDB6803F4E0631B0A1846BD465DF848
:1049C800047B704700ED00E080B483B000AF03467D
:1049D800FB71084997F907305B09FA7902F01F0261
:1049E800012000FA02F241F823200C37BD465DF899
:1049F800047B704700E100E080B483B000AF034659
:104A0800FB71094997F907305B09FA7902F01F022F
:104A1800012000FA02F2203341F823200C37BD466A
:104A28005DF8047B704700BF00E100E080B483B00C
:104A380000AF03463960FB7197F90730002B0BDA9A
:104A48000D49FB7903F00F03043B3A68D2B2120117
:104A5800D2B20B441A7609E0084997F907303A6848
:104A6800D2B21201D2B20B4483F800230C37BD46F0
:104A78005DF8047B704700BF00ED00E000E100E056
:104A880080B489B000AFF860B9607A60FB6803F061
:104A98000703FB61FB69C3F10703042B28BF042349
:104AA800BB61FB690433062B02D9FB69033B00E0B9
:104AB80000237B61BB69012202FA03F35A1EBB681B
:104AC8001A407B699A407B69012101FA03F3591E58
:104AD8007B680B40134318462437BD465DF8047BBA
:104AE800704700BF80B582B000AF78607B68072B45
:104AF8000FD07B68062B0CD07B68052B09D07B6810
:104B0800042B06D07B68032B03D00548A42101F0B1
:104B180067FC7868FFF726FF0837BD4680BD00BFF1
:104B2800049E000880B586B000AF0346B9607A607D
:104B3800FB7300237B617B680F2B03D90E48BC21D4
:104B480001F04EFCBB680F2B03D90B48BD2101F0C7
:104B580047FCFFF72BFF78617869B9687A68FFF737
:104B68008FFF024697F90F3018461146FFF75EFF90
:104B78001837BD4680BD00BF049E000880B582B0CE
:104B880000AF0346FB7197F90730002B03DA06489C
:104B9800D02101F025FC97F907301846FFF714FFDC
:104BA8000837BD4680BD00BF049E000880B582B0AE
:104BB80000AF0346FB7197F90730002B03DA06486C
:104BC800E02101F00DFC97F907301846FFF714FFB4
:104BD8000837BD4680BD00BF049E000880B588B078
:104BE80000AF7860396000237B6100233B610023BC
:104BF800BB617B683E4A934223D07B683D4A93421F
:104C08001FD07B683C4A93421BD07B683B4A934247
:104C180017D07B683A4A934213D07B68394A93424B
:104C28000FD07B68384A93420BD07B68374A93424F
:104C380007D07B68364A934203D03648C52101F035
:104C4800CFFB3B681B689BB2002B03D13148C621C0
:104C580001F0C6FB3B685B68002B35D03B685B689E
:104C6800012B31D03B685B68112B2DD03B685B680A
:104C7800022B29D03B685B68122B25D03B685B6808
:104C8800254A934220D03B685B68244A93421BD054
:104C98003B685B68224A934216D03B685B68214AAE
:104CA800934211D03B685B681F4A93420CD03B6823
:104CB8005B681E4A934207D03B685B68032B03D0AE
:104CC8001448C72101F08CFB3B689B68002B0BD074
:104CD8003B689B68012B07D03B689B68022B03D07D
:104CE8000C48C82101F07CFB0023FB6151E200BFA6
:104CF800000002400004024000080240000C02408C
:104D0800001002400014024000180240001C02403B
:104D180000200240389E00080000111000002110F9
:104D280000003110000012100000221000003210A4
:104D3800FB69012202FA03F37B613B681A687B690D
:104D480013403B613A697B699A4240F01F823B6895
:104D58005B68022B04D03B685B68122B40F0BB8079
:104D68003B681B69002B00F093803B681B69092B8B
:104D780000F08E803B681B69002B00F089803B683F
:104D88001B69002B00F084803B681B69002B7FD0D7
:104D98003B681B69002B7BD03B681B69012B77D0D4
:104DA8003B681B69012B73D03B681B69022B6FD0D2
:104DB8003B681B69022B6BD03B681B69022B67D0D1
:104DC8003B681B69032B63D03B681B69042B5FD0CE
:104DD8003B681B69042B5BD03B681B69042B57D0CD
:104DE8003B681B69052B53D03B681B69052B4FD0CB
:104DF8003B681B69092B4BD03B681B69062B47D0C6
:104E08003B681B69092B43D03B681B69072B3FD0C4
:104E18003B681B69072B3BD03B681B69072B37D0C6
:104E28003B681B69082B33D03B681B69082B2FD0C4
:104E38003B681B69082B2BD03B681B69092B27D0C3
:104E48003B681B69092B23D03B681B690A2B1FD0C1
:104E58003B681B690A2B1BD03B681B690B2B17D0BF
:104E68003B681B690C2B13D03B681B690C2B0FD0BC
:104E78003B681B690D2B0BD03B681B690C2B07D0BB
:104E88003B681B690F2B03D08248D92101F0A8FA8F
:104E9800FB69DA087B68083253F82230BB61FB698A
:104EA80003F007039B001A460F239340DB43BA69BC
:104EB8001340BB613B681B69FA6902F00702920064
:104EC8009340BA691343BB61FB69DA087B6808320F
:104ED800B96943F822107B681B68BB61FB695B00FA
:104EE8001A4603239340DB43BA691340BB613B680E
:104EF8005B6803F00303FA6952009340BA691343ED
:104F0800BB617B68BA691A603B685B68012B0BD090
:104F18003B685B68022B07D03B685B68112B03D0AA
:104F28003B685B68122B43D13B68DB68002B0FD0D2
:104F38003B68DB68012B0BD03B68DB68022B07D092
:104F48003B68DB68032B03D05248EC2101F048FA98
:104F58007B689B68BB61FB695B001A46032393402F
:104F6800DB43BA691340BB613B68DB68FA695200EE
:104F78009340BA691343BB617B68BA699A607B68DE
:104F88005B68BB61FB69012202FA03F3DB43BA6980
:104F98001340BB613B685B6803F010031A09FB69A7
:104FA80002FA03F3BA691343BB617B68BA695A60B2
:104FB8007B68DB68BB61FB695B001A46032393408F
:104FC800DB43BA691340BB613B689B68FA695200CE
:104FD8009340BA691343BB617B68BA69DA603B687E
:104FE8005B6803F08053002B00F0D0802A4A2A4BDC
:104FF8005B6C43F480435364274B5B6C03F480433E
:10500800FB60FB68254AFB699B08023352F8233092
:10501800BB61FB6903F003039B001A460F2393400F
:10502800DB43BA691340BB617B681D4A934249D090
:105038007B681C4A93422BD07B681B4A934225D03D
:105048007B681A4A93421FD07B68194A934219D049
:105058007B68184A934213D07B68174A93420DD055
:105068007B68164A934207D07B68154A934201D160
:10507800082328E0092326E0072324E0062322E06A
:10508800052320E004231EE003231CE002231AE08A
:10509800012318E0389E000800380240003801401B
:1050A800000002400004024000080240000C0240D8
:1050B800001002400014024000180240001C024088
:1050C800002002400023FA6902F003029200934094
:1050D800BA691343BB613249FB699B080233BA6959
:1050E80041F823202F4B1B68BB613B69DB43BA693E
:1050F8001340BB613B685B6803F48033002B03D02B
:10510800BA693B691343BB61264ABB691360254BE7
:105118005B68BB613B69DB43BA691340BB613B68B1
:105128005B6803F40033002B03D0BA693B6913436F
:10513800BB611C4ABB6953601A4B9B68BB613B69E6
:10514800DB43BA691340BB613B685B6803F48013B7
:10515800002B03D0BA693B691343BB61114ABB6991
:105168009360104BDB68BB613B69DB43BA69134052
:10517800BB613B685B6803F40013002B03D0BA697A
:105188003B691343BB61074ABB69D360FB690133C1
:10519800FB61FB690F2B7FF6CBAD2037BD4680BD89
:1051A80000380140003C014080B582B000AF786013
:1051B8000B467B8013467B707B88002B04D10F48FD
:1051C80040F2B11101F00CF97B78002B07D07B7805
:1051D800012B04D009484FF4D97101F001F97B780B
:1051E800002B03D07A887B689A6103E07B881A04D5
:1051F8007B689A610837BD4680BD00BF389E0008AD
:1052080080B582B000AF78600B467B807B88002B2E
:1052180004D107484FF4E47101F0E2F87B685A6959
:105228007B885A407B685A610837BD4680BD00BFFD
:10523800389E000880B48BB000AF0023FB610023C8
:105248007B620023BB6100233B62364B9B6803F003
:105258000C03042B06D0082B07D0002B58D1324B57
:105268003B6258E0314B3B6255E02E4B5B6803F0E4
:105278003F03FB612B4B5B6803F48003002B17D0C3
:105288002A4AFB69B2FBF3F2264B596847F6C0730A
:105298000B4047F6C0717961796991FAA1F13961DA
:1052A8003969B1FA81F1CB4003FB02F37B6216E066
:1052B8001D4AFB69B2FBF3F21A4B596847F6C073F3
:1052C8000B4047F6C071F960F96891FAA1F1B9602D
:1052D800B968B1FA81F1CB4003FB02F37B62114B51
:1052E8005B6803F440324FF440337B607B6893FA89
:1052F800A3F33B603B68B3FA83F322FA03F3013369
:105308005B00BB617A6ABB69B2FBF3F33B6202E004
:10531800054B3B6200BF3B6A18462C37BD465DF81B
:10532800047B7047003802400024F40040787D0177
:1053380080B582B000AFFFF77DFF01460D4B9B683B
:1053480003F0F002F0237B607B6893FAA3F33B60E1
:105358003B68B3FA83F322FA03F3074AD35C21FAD2
:1053680003F3064A1360054B1B6818460837BD4609
:1053780080BD00BF00380240689E00080C00002075
:1053880080B582B000AFFFF7D3FF01460B4B9B6897
:1053980003F4E0524FF4E0537B607B6893FAA3F385
:1053A8003B603B68B3FA83F322FA03F3044AD35C05
:1053B80021FA03F318460837BD4680BD003802407D
:1053C800689E000880B582B000AFFFF7B1FF0146C4
:1053D8000B4B9B6803F460424FF460437B607B682F
:1053E80093FAA3F33B603B68B3FA83F322FA03F31F
:1053F800044AD35C21FA03F318460837BD4680BD3A
:1054080000380240689E000880B584B000AFF8609C
:10541800B9607A60FB68002B01D1012336E0FB6894
:1054280093F83D30DBB2002B06D1FB68002283F8ED
:105438003C20F86800F02EF8FB681A68FB6808330F
:105448001046194600F036FDFB681A68FB689B6831
:105458001046B9681A4600F031FEFB685968FB68C7
:105468009A68FB681B6B0846796800F0BBFEFB680E
:105478001B68FA689268F9680968F868806851F8E2
:10548800201041F0010143F822100023184610377C
:10549800BD4680BD80B483B000AF78600C37BD4690
:1054A8005DF8047B704700BF80B582B000AF7860BC
:1054B8007B68002B01D10123AEE07B689B69002B40
:1054C8002FD07B681B68564A934212D07B681B68B2
:1054D800544A93420DD07B681B68534A934208D0C4
:1054E8007B681B68514A934203D05148FC2100F065
:1054F80077FF7B689B69002B36D07B689B69B3F587
:10550800807F31D07B689B69B3F5007F2CD07B68A6
:105518009B69B3F5407F27D04548FD2100F060FF27
:1055280022E07B681B683E4A93421DD07B681B685B
:105538003C4A934218D07B681B683B4A934213D07D
:105548007B681B683B4A93420ED07B681B683A4ACB
:10555800934209D07B681B68344A934204D034488C
:1055680040F2011100F03CFF7B689B68002B09D0DA
:105578007B689B68B3F5805F04D02D4840F2031127
:1055880000F02EFF7B68DB69002B09D07B68DB69A4
:10559800B3F5004F04D026484FF4827100F020FF85
:1055A8007B6893F83930DBB2002B06D17B68002288
:1055B80083F83820786800F041F87B68022283F885
:1055C80039207B681B687A681268D26822F4005216
:1055D800DA60786800F0C2FA7B681B687A6812683B
:1055E800126922F490421A617B681B687A68126813
:1055F800526922F02A025A617B681B687A6812682D
:10560800D26842F40052DA607B680022DA637B6871
:10561800012283F83920002318460837BD4680BD8B
:1056280000100140004400400048004000140140C0
:10563800789E0008004C00400050004080B483B0C1
:1056480000AF78600C37BD465DF8047B704700BF3B
:1056580080B487B000AFF860B9601346FB800023C0
:105668007B61FB6893F83930DBB27B617B69012B86
:1056780002D07B69222B4BD1BB68002B02D0FB8860
:10568800002B01D1012344E0FB6893F83830012B4B
:1056980001D102233DE0FB68012283F83820FB6832
:1056A800BA681A62FB68FA889A84FB68FA88DA840E
:1056B800FB680022DA63FB6893F83930DBB2222BEF
:1056C80004D1FB68322283F8392003E0FB681222F8
:1056D80083F83920FB681B68FA681268D26842F4BC
:1056E8008072DA60FB681B68FA681268526942F0D7
:1056F80001025A61FB68002283F83820FB681B68A6
:10570800FA681268D26842F08002DA60002300E08A
:10571800022318461C37BD465DF8047B704700BF5E
:1057280080B487B000AFF860B9601346FB800023EF
:105738007B61FB6893F83930DBB27B617B69012BB5
:1057480002D07B69122B4BD1BB68002B02D0FB889F
:10575800002B01D1012344E0FB6893F83830012B7A
:1057680001D102233DE0FB68012283F83820FB6861
:10577800BA689A62FB68FA889A85FB68FA88DA85BB
:10578800FB680022DA63FB6893F83930DBB2122B2E
:1057980004D1FB68322283F8392003E0FB68222217
:1057A80083F83920FB681B68FA681268D26842F4EB
:1057B8008072DA60FB681B68FA681268526942F006
:1057C80001025A61FB68002283F83820FB681B68D5
:1057D800FA681268D26842F02002DA60002300E01A
:1057E800022318461C37BD465DF8047B704700BF8E
:1057F80080B588B000AF78600023FB610023BB61EF
:105808007B681B681B6803F00103002B14BF01238E
:105818000023DBB2FB617B681B68DB6803F48073E1
:10582800BB61FB69002B11D0BB69002B0ED07B68D4
:105838001B681B687B617B681B685B687B617B6995
:105848007B68DB6B43F001027B68DA637B681B686B
:105858001B6803F00203002B14BF01230023DBB2F3
:10586800FB617B681B685B6903F00103BB61FB6933
:10587800002B11D0BB69002B0ED07B681B681B68FE
:105888003B617B681B685B683B613B697B68DB6BE2
:1058980043F004027B68DA637B681B681B6803F0CB
:1058A8000403002B14BF01230023DBB2FB617B68D8
:1058B8001B685B6903F00103BB61FB69002B11D016
:1058C800BB69002B0ED07B681B681B68FB607B687C
:1058D8001B685B68FB60FB687B68DB6B43F002025C
:1058E8007B68DA637B681B681B6803F00803002B7E
:1058F80014BF01230023DBB2FB617B681B685B6973
:1059080003F00103BB61FB69002B11D0BB69002BBD
:105918000ED07B681B681B68BB607B681B685B6874
:10592800BB60BB687B68DB6B43F008027B68DA63AB
:105938007B681B681B6803F02003002B14BF01233E
:105948000023DBB2FB617B681B68DB6803F0200384
:10595800BB61FB69002B05D0BB69002B02D07868BE
:1059680000F0DCF87B681B681B6803F08003002BE1
:1059780014BF01230023DBB2FB617B681B68DB6873
:1059880003F08003BB61FB69002B05D0BB69002BCA
:1059980002D0786800F032F87B681B681B6803F057
:1059A8004003002B14BF01230023DBB2FB617B689B
:1059B8001B68DB6803F04003BB61FB69002B05D063
:1059C800BB69002B02D0786800F074F87B68DB6B49
:1059D800002B06D07B68012283F83920786802F012
:1059E800D9FC2037BD4680BD80B483B000AF786055
:1059F8000C37BD465DF8047B704700BF80B485B0A6
:105A080000AF78600023FB607B6893F83930DBB225
:105A1800FB60FB68122B02D0FB68322B43D17B68FA
:105A28009B68B3F5805F19D17B681B6ABB607B6894
:105A38001B68BA681288C2F308025A607B681B693F
:105A4800002B05D17B681B6A9A1C7B681A620EE0E2
:105A58007B681B6A5A1C7B681A6208E07B681A68B4
:105A68007B681B6A581C796808621B7853607B68DE
:105A7800DB8C013B9AB27B68DA847B68DB8C002B79
:105A88000FD17B681B687A681268D26822F080029E
:105A9800DA607B681B687A681268D26842F0400254
:105AA800DA60002300E0022318461437BD465DF88B
:105AB800047B704780B582B000AF78607B681B6854
:105AC8007A681268D26822F04002DA607B6893F83C
:105AD8003930DBB2322B04D17B68222283F839209B
:105AE80013E07B681B687A681268D26822F48072B7
:105AF800DA607B681B687A681268526922F00102D2
:105B08005A617B68012283F839207868FFF76CFFB7
:105B1800002318460837BD4680BD00BF80B584B055
:105B280000AF78600023FB607B6893F83930DBB204
:105B3800FB60FB68222B02D0FB68322B08D17B6804
:105B48001B685B68DBB2184602F02EFC002300E0FD
:105B5800022318461037BD4680BD00BFF0B585B09A
:105B680000AF78600023FB607B685B68A94A9342BA
:105B780004D9A94840F23F7100F032FC7B68DB6829
:105B8800002B09D07B68DB68B3F5005F04D0A2481E
:105B98004FF4E86100F024FC7B681B69002B0ED0F1
:105BA8007B681B69B3F5806F09D07B681B69B3F507
:105BB800C06F04D0984840F2417100F011FC7B6836
:105BC8005A694FF6F3731340002B03D17B685B6966
:105BD800002B04D1904840F2427100F001FC7B6830
:105BE8001B681B69FB60FB6823F44053FB607B6800
:105BF800DB68FA681343FB607B681B68FA681A6104
:105C08007B681B68DB68FB60FB6823F4164323F0A2
:105C18000C03FB607B689A687B681B691A437B6886
:105C28005B691A437B68DB691343FA681343FB60BB
:105C38007B681B68FA68DA607B681B685B69FB60D5
:105C4800FB6823F44073FB607B689B69FA68134325
:105C5800FB607B681B68FA685A617B68DB69B3F58F
:105C6800004F40F08C807B681B686C4A934204D0DC
:105C78007B681B686A4A934240D17B681C68FFF7BF
:105C8800A1FB024613469B0013449A001A447B6802
:105C98005B685B00B2FBF3F3624AA2FB03235B0978
:105CA8001D01FFF78FFB024613469B0013449A0021
:105CB8001A447B685B685B00B2FBF3F6FFF782FB74
:105CC800024613469B0013449A001A447B685B689B
:105CD8005B00B2FBF3F3534AA2FB03235B09642284
:105CE80002FB03F3F31A1B0132334E4AA2FB0323D0
:105CF8005B0903F00F032B43A360D5E07B681C68A6
:105D0800FFF73EFB024613469B0013449A001A44D1
:105D18007B685B685B00B2FBF3F3424AA2FB032398
:105D28005B091D01FFF72CFB024613469B00134439
:105D38009A001A447B685B685B00B2FBF3F6FFF7D6
:105D48001FFB024613469B0013449A001A447B68C3
:105D58005B685B00B2FBF3F3324AA2FB03235B09E7
:105D6800642202FB03F3F31A1B0132332D4AA2FB10
:105D780003235B0903F00F032B43A36094E07B68C4
:105D88001B68264A934204D07B681B68244A9342C6
:105D98004AD17B681C68FFF715FB024613469B0037
:105DA80013449A001A447B685B689B00B2FBF3F3C8
:105DB8001C4AA2FB03235B091D01FFF703FB0246F4
:105DC80013469B0013449A001A447B685B689B0047
:105DD800B2FBF3F6FFF7F6FA024613469B001344AC
:105DE8009A001A447B685B689B00B2FBF3F30D4A88
:105DF800A2FB03235B09642202FB03F3F31A1B01D2
:105E08003233084AA2FB03235B0903F00F032B4339
:105E1800A36049E0A037A000789E00080010014068
:105E2800001401401F85EB517B681C68FFF7A8FA36
:105E3800024613469B0013449A001A447B685B6829
:105E48009B00B2FBF3F31A4AA2FB03235B091D0173
:105E5800FFF796FA024613469B0013449A001A4429
:105E68007B685B689B00B2FBF3F6FFF789FA024692
:105E780013469B0013449A001A447B685B689B0096
:105E8800B2FBF3F30A4AA2FB03235B09642202FB79
:105E980003F3F31A1B013233054AA2FB03235B0900
:105EA80003F00F032B43A3601437BD46F0BD00BFBA
:105EB8001F85EB5180B584B000AF7860396000234E
:105EC800FB603B681B68002B0FD03B681B68022BEC
:105ED8000BD03B681B68042B07D03B681B68062B5C
:105EE80003D07448972100F07BFA3B685B68002B6D
:105EF80007D03B685B68022B03D06E48982100F0FE
:105F08006FFA3B689B68002B0BD03B689B68042B9F
:105F180007D03B689B68082B03D06648992100F09E
:105F28005FFA3B68DB68002B0BD03B68DB68102B03
:105F380007D03B68DB68202B03D05E489A2100F02D
:105F48004FFA3B681B69002B08D03B681B69B3F507
:105F5800807F03D057489B2100F042FA3B685B6979
:105F6800002B08D03B685B69B3F5007F03D051482C
:105F78009C2100F035FA3B689B69002B08D03B68F0
:105F88009B69B3F5806F03D04A489D2100F028FA39
:105F98003B68DB69002B08D03B68DB69B3F5006F11
:105FA80003D044489E2100F01BFA3B681B6A002B73
:105FB80008D03B681B6AB3F5805F03D03D489F213A
:105FC80000F00EFA3B685B6A002B08D03B685B6AFE
:105FD800B3F5005F03D03748A02100F001FA3B6811
:105FE8009B6A002B08D03B689B6AB3F5804F03D0AF
:105FF8003048A12100F0F4F93B68DB6A002B08D097
:106008003B68DB6AB3F5004F03D02A48A22100F0B1
:10601800E7F93B681B6B002B08D03B681B6BB3F59B
:10602800002F03D02348A32100F0DAF93B681A684F
:106038007B6853F82230FB60FA681F4B1340FB6003
:106048003B685A683B689B681A433B68DB681A439D
:106058003B681B691A433B685B691A433B689B6949
:106068001A433B68DB691A433B681B6A1A433B685F
:106078005B6A1A433B689B6A1A433B68DB6A1A43AC
:106088003B681B6B1343FA681343FB603B689B68D0
:10609800082B03D1FB6843F04003FB603B681A6898
:1060A8007B68F96843F82210002318461037BD466C
:1060B80080BD00BFA89E00088000F7FF80B586B0AD
:1060C80000AFF860B9607A6000237B61BB681B6829
:1060D8000F2B03D94248F82100F082F9BB685B68AE
:1060E800002B03D0BB685B680F2B03D93C48F92110
:1060F80000F076F9BB689B68002B03D0BB689B68EF
:10610800FF2B03D93648FA2100F06AF9BB68DB682F
:106118000F2B03D93248FB2100F062F9BB681B69D9
:10612800012B03D9BB681B69102B03D92C48FC2110
:1061380000F056F9BB685B69012B03D9BB685B6942
:10614800112B03D92648FD2100F04AF9BB689B6949
:10615800002B12D0BB689B69B3F1805F0DD0BB6880
:106168009B69B3F1005F08D0BB689B69B3F1405FDE
:1061780003D01B48FE2100F033F97B685A1CFB68EA
:1061880053F822307B617B6903F040437B61BB6835
:106198001A68BB685B681B011A43BB689B681B02D3
:1061A8001A43BB68DB681B041A43BB681B69013BC5
:1061B8001B051A43BB685B69023B1B061A43BB6895
:1061C8009B6913437A6913437B617B685A1CFB689C
:1061D800796943F82210002318461837BD4680BD58
:1061E800A89E000880B586B000AFF860B9607A60F4
:1061F8003B6000237B613B68B3F5804F40F08B80A8
:10620800BB681B680F2B04D948484FF4937100F002
:10621800E7F8BB685B68002B03D0BB685B680F2B93
:1062280004D9424840F2271100F0DAF8BB689B68AD
:10623800002B03D0BB689B68FF2B04D93B484FF465
:10624800947100F0CDF8BB68DB680F2B04D9374890
:1062580040F2291100F0C4F8BB681B69012B03D96F
:10626800BB681B69102B04D930484FF4957100F0B6
:10627800B7F8BB685B69012B03D9BB685B69112B55
